:020000000A28CC
:10000800FE00030EF0000A08F100FC29232A112241
:100018000C148B1783129F1F0E2861212A080319BD
:100028000E282408A9002308AF002208AE002108E2
:10003800AD002008AC000430F2002C30B121AB0038
:10004800AA012906031D0E280030AD1A0130FB0055
:10005800FB08031DDA282C1C3C282E080139B200A5
:10006800320C83120313031C3B2806143C28061089
:10007800AC1C49282E0C0139B200320C8312031330
:10008800031C48288614492886102C1D58282E0C35
:10009800B200320C0139B300330C83120313031C72
:1000A8005728061558280611AC1D68282E0CB200D2
:1000B800B20C320C0139B300330C83120313031C46
:1000C80067288615682886112C1E75282E0E01397A
:1000D800B200320C83120313031C74280616752809
:1000E8000612AC1E84282E0EB200320C0139B30061
:1000F800330C83120313031C832886168428861264
:100108002C1F94282E0EB200B20C320C0139B30009
:10011800330C83120313031C932806179428061321
:10012800AC1FA2282E0D2E0D0139B200320C8312FD
:100138000313031CA1288617A22886132D1CAF2899
:100148002F080139B200320C83120313031CAE28A6
:100158000514AF280510AD1CBC282F0C0139B200BE
:10016800320C83120313031CBB288515BC28851188
:100178002D1DCB282F0CB200320C0139B300330CE3
:1001880083120313031CCA280517CB280513AD1DBA
:100198000E282F0CB200B20C320C0139B300330C0C
:1001A800831203130318FD2885130E282C1CDD2841
:1001B8000614AC1CE02886142C1DE3280615AC1D7B
:1001C800E62886152C1EE9280616AC1EEC2886168D
:1001D8002C1FEF280617AC1FF22886172D1CF528B0
:1001E8000514AD1CF82885152D1DFB280517AD1D18
:1001F8000E2885170E282830F901FA01F400F408B2
:1002080003191429831203139F1F0C299F1B1429F8
:10021800740803191129F4030329F201F3010800F2
:10022800F90A0319FA0AFA30F400F40803192B2919
:10023800831203139F1F2229F4031929FA30F400AB
:10024800F40803192B299F1B1429F40324290030CF
:100258007A020730031979020030031C3E297A021A
:100268000F300319790203183D29F201F20AF3014C
:10027800080000307A021030031979020030031C9C
:1002880050297A0218300319790203184F290230CD
:10029800F200F301080000307A02193003197902DC
:1002A800031C112900307A02283003197902031837
:1002B80011290330F200F3010800B1018E018F010A
:1002C8000C101014FF207208033A7304031D6629EA
:1002D800831203138E018F01DB2176088312031327
:1002E800A8007508A70027032804031D81293108E1
:1002F800A221FF3A831380058A292708023A280495
:10030800031D8D293108A22183138004A50A03192E
:10031800A60A00302602083003192502031C6C299E
:100328000530B10AA501A6013102031C6C29AA01F6
:10033800AA0AA701A801F901FA010800203E8400D1
:100348000130B0002508073C013EAC290310B00D70
:10035800FF3E031DAA2930080800F300FF30F7000C
:10036800F2037208FF3A0319D9297308840083132A
:100378000008F706F30AF601F71BC9297708F40005
:10038800F5010310F40DF50DD1297708F40031308B
:10039800F5010310F40DF50DF4067408F7000830A4
:1003A800F60A76020318B429C02977080800FF2046
:1003B8007308F8007208F70078040319E829770829
:1003C800033A7804031DEB29F501F60108007708C4
:1003D800023A7804031DF4290230F500F6010800FA
:1003E80077037804031DE829F501F50AF6010800EA
:1003F800831603130C1C0A2A83120C1C0A2A7B0876
:100408000319082A8501860110100C1071088A004A
:10041800700E8300FE0E7E0E0900850186010630EF
:10042800831685008601253083129F0030309000A6
:1004380089308316810040308E158B0008002030EB
:10044800F901FA01FB018313840030302D22830166
:100458000B2864008001840A04060319003404068A
:020468002E2A3A
:02400E0030DEA2
:00000001FF
