:020000000A28CC
:10000800FE00030EF0000A08F1000B28AE298B1A37
:100018000B1DCC280B11831203130608F2000730BE
:10002800F2057208073A0319B428F90A4730790229
:10003800031CBD28FF308600861106182A28771869
:100048002C2801302714A90677142C28271077109C
:1000580086183528F71837280230A714A906F71488
:100068003728A710F71006194028771942280430B6
:100078002715A9067715422827117711FF30860022
:10008800061206184E28F71950280830A715A90691
:10009800F7155028A711F71186185928771A5B28E1
:1000A80010302716A90677165B282712771206192B
:1000B8006428F71A66282030A716A906F7166628B6
:1000C800A712F712FF308600861206187228771BCF
:1000D800742840302717A906771774282713771331
:1000E80086187D28F71B7F288030A717A906F717E1
:1000F8007F28A713F7130619882878188A2801304B
:100108002814AA0678148A2828107810FF30860048
:10011800061306189628F81898280230A814AA0674
:10012800F8149828A810F8108618A1287819A32878
:1001380004302815AA067815A3282811781106195D
:10014800AC28F819AE280830A815AA06F815AE2864
:10015800A811F81186012330F900A601A60ABD28C6
:1001680079080319B928F903BD288601A601F70102
:10017800F801851AC628FA0A46307A02031CCC28E8
:10018800A816CC287A080319CB28FA03CC28A81279
:1001980071088A00700E8300FE0E7E0E09009E21F3
:1001A8000B118B168312A701A801A901AA01F70157
:1001B800F8018B17A6080319FC280430F300273030
:1001C800FF20AB0085140515F301F30AF40177212C
:1001D8005D2127088E2128088E2129088E212A08CA
:1001E8008E212B088E213230F300F4017721DE288E
:1001F80085100511DE28A000FF30A400F303730862
:10020800FF3A031927292008840083130008A4064D
:10021800A00AA301A41B17292408A100A201031006
:10022800A10DA20D1F292408A1003130A20103103D
:10023800A10DA20DA1062108A4000830A30A2302DB
:10024800031802290E29240808000930A200A20870
:1002580003193E2953300514F600F60B31295330A3
:10026800831203130510F600F60B382983120313C3
:10027800A2032B2905300510F300F4017729123069
:10028800A200A2080319582953300514F600F60BEA
:100298004B295330831203130510F600F60B52292D
:1002A80083120313A203452905300510F300F40156
:1002B80077292030A200A2080319722953300514A7
:1002C800F600F60B65295330831203130510F60068
:1002D800F60B6C2983120313A2035F29053005105E
:1002E800F300F4017729A001A10174082102031D7C
:1002F8007F297308200203180800F930F50064000C
:10030800F50B83298729640083120313A00A0319B4
:10031800A10A7929A300A5000830A400A40803199C
:100328000800A51F992943219A2929210310A50D01
:10033800A4039229850186012030831685000730A1
:10034800860083129F0009308316810040308E1585
:100358008B000800F701F801F901FA01A601A701CD
:0A036800A801A901AA018301D3280E
:02400E0010DEC2
:00000001FF
