:10000000E328A30036088400340928208413A308B9
:100010000319DE28F030A50022088038A400F03053
:10002000A5030319A5000319A3030319DE28182843
:100030003220030120183408A21F3408A208031933
:100040000301A40F252880060C28262800000F286D
:1000500084178005DE2883178001840AFF3E031D74
:100060002C28DE28210820040319A00A8030201A39
:10007000A1062019A106A018A106210DA00DA10D11
:10008000DE2883169B001C141A08DE2883169A00AB
:100090001C1555309D00AA309D009C149C184E28BC
:1000A0001C11DE28A301A200FF30A207031CA30736
:1000B000031CDE280330A100DF3060205428A1019A
:1000C000E83EA000A109FC30031C6928A007031822
:1000D0006628A0076400A10F662820186F28A01CBE
:1000E0007328000073280800A701A6001C30A20096
:1000F0006F30A300C8200F30831681048312FF30B5
:100100006300A007031CA10703188028DE28013E16
:10011000A7000A30A200A301AC20A70B8C2824085A
:100120000800A101A301A20002309828A200053016
:10013000A80023082102031D9F2822082002043062
:1001400003180130031902302805031DFF30DE2893
:100150000404031DFF30DE28A501A4011030A60011
:10016000210DA40DA50D2208A4022308031C230FB2
:10017000A5020318C2282208A40723080318230F86
:10018000A5070310A00DA10DA60BB0282008DE289E
:100190001030A800A101A001A70CA60C031CD628B2
:1001A0002208A00723080318230FA107A10CA00C05
:1001B000A50CA40CA80BCC282408DE288313031359
:1001C00083126400080085018601831601308600D1
:1001D0003F308500831207309F000130A3002C3090
:1001E00053202030840060302C20A0308400503018
:1001F0002C202030840030302B2000304120CD00D6
:1002000001304120CF0002304120C900033041209D
:10021000C6004F08A600A7016430A200A301C820B1
:10022000BE002508BF004908A600A7010A30A200A9
:10023000A301C820C0002508C1003E08C0073F0830
:100240000318013EC10746084007BA0041080318D9
:10025000013EBB0064004D08FF3C031D33297B3089
:10026000BA00BB01BC2305304120CC000A3041203C
:10027000C7000130C8006400103048020318582934
:1002800064004708003C031D47298613562986173A
:100290000330A300E830532086130330A300E83076
:1002A0005320640048080F3C031D5629C80F3B2902
:1002B00064004708FF3C031D5F29C701EE23470880
:1002C0008600CC01B801B901522364004A18252CDC
:1002D0003808A0003908A100A30100309620031DB2
:1002E00086297B30BA00BB010330A300E8305320DD
:1002F0000424F92304240424BC23051783160513BE
:1003000083120330A300E8305320DC293808A00012
:100310003908A1003B08A3003A089620031DA9292B
:100320000330A300E8305320F92332305220042454
:1003300032305220F923F923051783160513640080
:100340008312051FA429CC010330A300E8305320F9
:10035000DC29CC0A4C08A00001309120BE004C08DA
:10036000A00002309120C0003E0884004008A82070
:10037000C000C1006400400841040319CC29831661
:1003800005309B0083124C0846200330A300E83060
:1003900053200F240F240F2464004C08033C031D3A
:1003A000DB29CC010330A300E830532004240F24C0
:1003B0000F247830742062296400CA1CE029EE23DF
:1003C000872364004A18252C64004D080C3C03194F
:1003D000F12964004D080B3C0319802A04240F24E2
:1003E000DC29872364004A18252C64004D08003C52
:1003F000031DFD290F24282462290608C700640074
:100400004D08013C031D112A6400C718112A03304E
:10041000A300E8305320F923CA14023047048600B1
:10042000DC2964004D08023C031D242A640047199E
:10043000242A0330A300E8305320F923F923CA14F7
:10044000043047048600DC2964004D08033C031D8A
:100450003F2A6400C7193F2A0330A300E830532025
:100460000130CE00640004304E0203183A2AF9230A
:10047000CE0F322ACA14083047048600DC296400F3
:100480004D08043C031D5A2A6400471A5A2A0330B7
:10049000A300E83053200130CE00640005304E0246
:1004A0000318552AF923CE0F4D2ACA1410304704D9
:1004B0008600DC2964004D08063C031D7F2A522378
:1004C0003808A0003908A1003B08A3003A0896208C
:1004D000031D722A0330A300E8305320F923F923C7
:1004E0000424772A0330A300E8305320252C52231C
:1004F0003808BA003908BB00F9231A24BC23DC29C8
:10050000872364004A18252C0608C70064004D089C
:10051000003C031D962A0330A300E83053200F242B
:10052000CA140130470586008601DC2964004D08A5
:10053000013C031DAB2A6400C71C282C6400C71CA7
:10054000AB2A0330A300E83053200424CA14FD3042
:1005500047058600DC2964004D08023C031DC12AC2
:100560006400471D282C6400471DC12A0330A300E6
:10057000E830532004240424CA14FB3047058600C5
:10058000DC2964004D08033C031DDF2A6400C71DFD
:10059000282C6400C71DDF2A0330A300E830532055
:1005A0000130CE00640004304E020318DA2A04241D
:1005B000CE0FD22ACA14F73047058600DC29640022
:1005C0004D08043C031DFD2A6400471E282C6400CE
:1005D000471EFD2A0330A300E83053200130CE002F
:1005E000640005304E020318F82A0424CE0FF02AC6
:1005F000CA14EF3047058600DC2964004D08053C2D
:10060000031D172B0330A300E83053206400861C21
:100610000A2B17236400061D0E2B1D236400861D64
:10062000122B30236400061E162B4323DC291A24C8
:100630000730A300D030532008000130CE00640002
:1006400003304E0203182B2B1A240130A3009030E4
:100650005320CE0F1F2B0730A300D03053200800AB
:100660000130CE00640004304E0203183E2B1A24E1
:100670000130A30090305320CE0F322B0730A3005F
:10068000D030532008000130CE00640005304E0207
:100690000318512B1A240130A30090305320CE0FA1
:1006A000452B0800872364004A1C572B08004D087F
:1006B000A600A7016430A200A301C820B800250845
:1006C000B900872364004A1C662B08004D08A60069
:1006D000A7010A30A200A301C820BE002508BF0060
:1006E0003E08B8073F080318013EB9078723640096
:1006F0004A1C7B2B08004D08B8070318B90A83165B
:100700009B0183124D0846200A3052200800BC018C
:10071000BD0164000518A02BBC0A0319BD0A0330F3
:10072000A100203060203C08A0003D08A1003A3024
:10073000A30098309620031D9F2B4A140800892B94
:10074000CD016400051CB52B051A4D14051E4D1076
:100750008519CD14851DCD1005194D15051D4D119B
:100760008518CD15851CCD11A12B64004D080A3CC0
:10077000031DBB2BCD0108003A08C2003B08C30093
:100780004208A0004308A10002308720CF004208A1
:10079000A0004308A10001308720C9004208A00042
:1007A0004308A10000308720C600831601309B005B
:1007B00083124F0846200A305220831602309B00D5
:1007C0008312490846200A305220831603309B00CA
:1007D0008312460846200A30522008007E30060563
:1007E000C70083160A309B00831247084620CA10B0
:1007F00008000530B6008030B4007030A2000C3024
:1008000001208230522008000530B6008030B4004C
:100810005F30A2000C3001208230522008000530E9
:10082000B6008030B4002D30A20037300120823075
:10083000522008000530B6008030B4007230A200AB
:100840001930012082305220080028246229080033
:100850006400051F2D2C04240F2405305220861619
:10086000831686123230831252200330A300E83000
:1008700053208612831686128312051383160513DE
:100880008312BC01BD014A10B801B9010800630020
:02089000472CF3
:02400E00543F1D
:00000001FF
