:100000006128640017200318012822209401083079
:100010008F00232017200318940A971E94018E0C3A
:100020008F0B0928971A8E1323200E080800220828
:10003000840020088417800484130005171B200601
:10004000FF3E08001F1717081F39FF3E8D001608D6
:10005000F53E03188D0A1F1F40281F138C00023025
:10006000572040288F018E00FF308E07031C8F071A
:10007000031C5C2803308D00DF30402034288D01C4
:10008000E83E8C008D09FC30031C49288C070318BE
:1000900046288C0764008D0F46280C184F288C1CAE
:1000A000532800005328080003108D0C8C0CFF3ED1
:1000B000031854280C085C2883130313831264006C
:1000C00008008501831601308500860183128601B0
:1000D0008501A4010530A2000130A0002D3096005A
:1000E000033097000120453C031D72280120543C39
:1000F000031D72280120453C031D72280120A40025
:1001000064002408FF3C031D872869280C2964002B
:100110002408FE3C031D9228013086068316061033
:1001200083120C2964002408FD3C031D9D28023025
:1001300086068316861083120C2964002408FB3C73
:10014000031DA828043086068316061183120C2985
:1001500064002408F73C031DB32808308606831684
:10016000861183120C2964002408EF3C031DBE286D
:10017000103086068316061283120C2964002408A8
:10018000DF3C031DC92820308606831686128312A1
:100190000C2964002408BF3C031DD4284030860687
:1001A0008316061383120C29640024087F3C031D68
:1001B000DF28803086068316861383120C2964009C
:1001C00024081C3C031DEA2802308506831685108E
:1001D00083120C29640024081A3C031DF5280430FE
:1001E00085068316051183120C2964002408163C29
:1001F000031D0029083085068316851183120C29FA
:10020000640024080E3C031D0C298310051E831472
:1002100083180516831C0512C83032206928630034
:020220000F29A4
:02400E00FD3F74
:00000001FF
