:020000040000FA
:10000000012886010313831600308600FF30850027
:10001000831207309F009630A000A100A200A30029
:10002000A400A500A600A700A800A900AB01AD018F
:10003000AE01AC01B501B101B201B401B3010617C3
:100040002A202A202A202A202A202A200613AA0130
:10005000B0013628FF30B000B100FF30AA00AA0B73
:100060002F28B00B2D28B50B3328080000303B2378
:10007000AA00FF302A02031D3E28432800302A022E
:10008000031D072943288601AA01AB018617852392
:1000900001302F02031C47280030E6200130AB005E
:1000A0005128861406158611851DF62885230130F2
:1000B0002F02031C51280130E620AB010230AB00B7
:1000C0006128861406158611851DF62885230130C2
:1000D0002F02031C61280230E620AB010330AB0085
:1000E0007128861406158611851DF6288523013092
:1000F0002F02031C71280330E620AB010430AB0053
:100100008128861406158611851DF6288523013061
:100110002F02031C81280430E620AB010530AB0020
:100120009128861406158611851DF6288523013031
:100130002F02031C91280530E620AB010630AB00EE
:10014000A128861406158611851DF6288523013001
:100150002F02031CA1280630E620AB010730AB00BC
:10016000B128861406158611851DF62885230130D1
:100170002F02031CB1280730E620AB010830AB008A
:10018000C128861406158611851DF62885230130A1
:100190002F02031CC1280830E620AB010930AB0058
:1001A000D128861406158611851DF6288523013071
:1001B0002F02031CD1280930E620AB010A30AB0026
:1001C000861406158611851DF628E02883169B00E7
:1001D00083122F0883169A001C158B1355309D002F
:1001E000AA309D009C141C11831208000B3083164A
:1001F0009B0083122B0883169A001C158B13553015
:100200009D00AA309D009C141C11831207290C30FC
:100210008600851D9029051E0E2907292A202A20DF
:100220002A202A202A202A202A202A202A202A207E
:1002300086140611851807292A202A202A202A2018
:100240002A202A202A202A202A202A202A202A205E
:100250002A202A202A2006158610051E3029072963
:100260006E3086006E23AE0103303402031D74230A
:10027000FF30330203190729061586158610051C61
:100280007C29861486140611851D812906150615FC
:100290008611851D4D29861534292A20851D4D2955
:1002A0002D302E02031D332955296E2303303402CD
:1002B000031D7423FF303302031907290615861521
:1002C0008610051C8629861486140611851D8B2927
:1002D000061506158611851D6F29861556292A20B3
:1002E000851D6F2923302E02031D332986154328CF
:1002F0002A20851D782907292A20051C7C29AE0A79
:1003000042292A20851D8129AE0347292A20051C60
:100310008629AE0A64292A20851D8B29AE03692906
:100320002A20851D90290617AB010B303B23AB001B
:100330006E239A297423FF30330203190729861488
:10034000852301302F02031C9A292F08A0000130B9
:100350002B02031CB12A6E237423FF3033020319CE
:100360000729861406158611851DD82A861586103C
:10037000851DBD2A8614852301302F02031CAC295C
:100380002F08A10002302B02031CB12A6E23742314
:10039000FF30330203190729861406158611851DBF
:1003A000D82A86158610851DBD2A8614852301301E
:1003B0002F02031CC7292F08A20003302B02031CA5
:1003C000B12A6E237423FF303302031907298614E0
:1003D00006158611851DD82A86158610851DBD2A0D
:1003E0008614852301302F02031CE2292F08A30065
:1003F00004302B02031CB12A6E237423FF30330216
:1004000003190729861406158611851DD82A861515
:100410008610851DBD2A8614852301302F02031CFA
:10042000FD292F08A40005302B02031CB12A6E23DE
:100430007423FF3033020319072986140615861129
:10044000851DD82A86158610851DBD2A861485230C
:1004500001302F02031C182A2F08A50006302B029A
:10046000031CB12A6E237423FF30330203190729BA
:10047000861406158611851DD82A86158610851DB9
:10048000BD2A8614852301302F02031C332A2F082E
:10049000A60007302B02031CB12A6E237423FF3001
:1004A000330203190729861406158611851DD82ADB
:1004B00086158610851DBD2A8614852301302F02DE
:1004C000031C4E2A2F08A70008302B02031CB12A58
:1004D0006E237423FF30330203190729861406158F
:1004E0008611851DD82A86158610851DBD2A86147D
:1004F000852301302F02031C692A2F08A800093028
:100500002B02031CB12A6E237423FF30330203191C
:100510000729861406158611851DD82A861586108A
:10052000851DBD2A8614852301302F02031C842AD1
:100530002F08A9000A302B02031DB12A9F2A6E231F
:100540007423FF3033020319072985230617861405
:1005500006158611851DD82A86158610851DBD2A8B
:10056000A02A9630A000A100A200A300A400A5002C
:10057000A600A700A800A9009F2A2A200613861417
:10058000061586150610851DBD2A9630A000A1000F
:10059000A200A300A400A500A600A700A800A9002F
:1005A000061006162A202A202A202A2006120729A9
:1005B000851DD82A061300303B232002031D5A2B29
:1005C00001302B02031DE52A412B01303B23210280
:1005D000031D5A2B02302B02031DEF2A412B023040
:1005E0003B232202031D5A2B03302B02031DF92A41
:1005F000412B03303B232302031D5A2B04302B02D3
:10060000031D032B412B04303B232402031D5A2BD3
:1006100005302B02031D0D2B412B05303B232502FA
:10062000031D5A2B06302B02031D172B412B0630BE
:100630003B232602031D5A2B07302B02031D212BBF
:10064000412B07303B232702031D5A2B08302B0276
:10065000031D2B2B412B08303B232802031D5A2B53
:1006600009302B02031D352B412B09303B23290276
:10067000031D5A2B412B83169B001C141A0883124E
:100680000800B401061306142A202A20051E432858
:10069000861506158610851DBD2A2A202A20851D4F
:1006A000BD2A2A202A20851DBD2A2A202A20051B92
:1006B000412BBD2A061386162A202A202A202A200A
:1006C0002A202A202A202A202A202A20851FBD2AE3
:1006D000B40A0330340203193329BD2AAC01B10135
:1006E000C830B200B30108000130AC07031C080099
:1006F000AC010130B107031C0800B1010130B207A1
:10070000031C0800FF30B300080086140615861588
:10071000AF0186100518952B2A200616051C8C2B78
:1007200006120130AF00861408008518A02B2A207D
:100730000616851C972B06120430AF00861408009D
:100740000519AB2B2A200616051DA22B0612073011
:10075000AF0086140800861406110518B82B2A204D
:100760000616051CAF2B06120230AF000615080056
:100770008518C32B2A200616851CBA2B06120530B5
:10078000AF00061508000519CE2B2A200616051DF8
:10079000C52B06120830AF00061508008519D92BA5
:1007A0002A200616851DD02B06120A30AF0006152A
:1007B0000800061586110518E62B2A200616051CCA
:1007C000DD2B06120330AF00861508008518F12BCB
:1007D0002A200616851CE82B06120630AF00861567
:1007E00008000519FC2B2A200616051DF32B0612FE
:1007F0000930AF0086150800861506158614AF016E
:020800000800EE
:02400E00703F01
:00000001FF
