:100000007328040892002208840080309F0508307D
:100010009300031003189F0A1B20920C930B0A28CD
:100020000000971A1F0C1B20712003141B201B08B3
:100030008F001A0848288413971F2A2800082004D4
:10004000171F20068000841700082004031C2006C8
:100050008000352800082004031C2006171B2006FA
:100060008000841720098005352817081F39FF3EB6
:100070008D001608F53E03188D0A000055289000E3
:10008000150803196E2810086920950340288F0170
:100090008E00FF308E07031C8F07031C6E28033071
:1000A0008D00DF30552049288D01E83E8C008D09F8
:1000B000FC30031C5E288C0703185B288C07640047
:1000C0008D0F5B280C1864288C1C68280000682899
:1000D000080084001D088A001C0882008313031393
:1000E00083126400080083161E308500FF308600EE
:1000F00081138312FF30A400F6206400FF30060253
:1001000003188B280608A4008E206400FF30060226
:1001100003188B2885280A3047207A280530A2004A
:100120000130A0002D309600033097009A019B010A
:100130000530950001309C009D01AA303F2005301C
:10014000950001309C009D0100303F200530950056
:1001500001309C009D01FF303F200530A20001309E
:10016000A0002D309600033097009A019B01453086
:10017000022054300220453002202408022005309D
:10018000A2000130A0002D309600033097009A01A4
:100190009B014530022054300220453002202408C3
:1001A00002200530A2000130A0002D30960003305F
:1001B00097009A019B0145300220543002204530BF
:1001C0000220240802200530A2000130A0002D30BA
:1001D0009600033097009A019B014530022054306D
:1001E0000220453002202408022008001E300505A8
:1001F000A40064001E3024020318FF288E2064002F
:100200001E30050203180529FF280800630006298F
:02400E00FD3F74
:00000001FF
